{
  "address": "0x6B187a7b4439FD0C8128D72EB79Ef621AC6A60cc",
  "abi": [
    {
      "anonymous": false,
      "inputs": [
        {
          "indexed": false,
          "internalType": "string",
          "name": "txt",
          "type": "string"
        }
      ],
      "name": "MyMessage",
      "type": "event"
    },
    {
      "inputs": [],
      "name": "printHello",
      "outputs": [],
      "stateMutability": "nonpayable",
      "type": "function"
    }
  ],
  "transactionHash": "0xf2c5245467749dd958f3594a51fb20f565ba6c4a3e56cd4c31f459519991aa3e",
  "args": [],
  "numDeployments": 1,
  "solcInputHash": "454aa0b9ed7aa03bdb82e6eb3b2769de",
  "bytecode": "0x608060405234801561001057600080fd5b5060c38061001f6000396000f3fe6080604052348015600f57600080fd5b506004361060285760003560e01c8063cf2cc57614602d575b600080fd5b60336035565b005b7f35da8d9c74731d2d4cd09ea6b8589c59c7604a6e454a7120fc65b78caf7189b06040516083906020808252600d908201526c12195b1b1bddcb0815dbdc9b19609a1b604082015260600190565b60405180910390a156fea2646970667358221220956d1159af412dfce5a6d7e472bcf59d0cb921fefcd5e7b4025d5828d6ecadec64736f6c634300080f0033",
  "devdoc": {
    "kind": "dev",
    "methods": {},
    "version": 1
  },
  "userdoc": {
    "kind": "user",
    "methods": {},
    "version": 1
  },
  "storageLayout": {
    "storage": [],
    "types": null
  }
}